:100000000A128A11492F00308A000408840A8207E4
:100010000034573465346C3463346F346D34653474
:020020000034AA
:100E920083010A128A11A22F4E2F0130F002003074
:100EA200031CF103F102FF307106031D5A2FFF30BC
:100EB2007006031D5D2F5E2F4E2F0800F200720890
:100EC200831203138800861006100611F430F00016
:100ED2000130F1000A128A114D270A128A11831277
:100EE200031306150800F200720883120313880028
:100EF200061486100611F430F0000130F1000A12D7
:100F02008A114D270A128A1183120313061508004B
:100F120038300A128A115F270A128A1106300A1221
:100F22008A115F270A128A110C300A128A115F276E
:100F32000A128A1101300A128A115F270A128A11D3
:100F420008008316031388018601831203138801A4
:100F52000A128A1189270A128A11F430F00001302C
:100F6200F1000A128A114D270A128A1183300A12DD
:100F72008A115F270A128A1101300A128A11D027B8
:100F82000A128A118830F0001330F1000A128A1115
:100F92004D270A128A11A92F0A128A110028F50078
:100FA2000030F3000030F400F22F7308750784005C
:100FB2000A128A1103200A128A110A128A1174274C
:100FC2000A128A11F430F0000130F1000A128A117B
:100FD2004D270A128A110130F3070318F40A003070
:100FE200F4077308750784000A128A1103200A1293
:0E0FF2008A110038031DFE2FFF2FD62F080096
:00000001FF
