:060000000A128A11AB2F69
:100F560083010A128A11C12FB02F0130F00200302E
:100F6600031CF103F102FF307106031DBC2FFF3095
:100F76007006031DBF2FC02FB02F08008316031362
:100F8600860180308312031386000030F3000030A0
:100F9600F4007408803AFE0080307E02031DD52FCF
:100FA60009307302031CD82FD92FDA2FFD2F831295
:100FB60003130608F2000310720C86008830F00056
:100FC6001330F1000A128A11AF270A128A11013072
:100FD600F3070318F40A0030F4077408803AFE0099
:100FE60080307E02031DF92F09307302031CFC2F8B
:0A0FF600FD2FDA2F0A128A110028DD
:00000001FF
