:060000000A128A11E02B38
:1007C000BF01C001C101C201C301C401C501C6010D
:1007D000C701C80183010A128A11F12CEF2B0130E5
:1007E000F0020030031CF103F102FF307106031D1B
:1007F000FB2BFF307006031DFE2BFF2BEF2B080099
:100800007208831203138600071407158710E83057
:10081000F0000330F1000A128A11EE230A128A1145
:100820008312031307110800720883120313860052
:10083000071007158710E830F0000330F1000A12A6
:100840008A11EE230A128A1183120313071108007A
:10085000831203132A08F0002B08F100F2018E30F6
:10086000FC007C08F3000310003003180130F40092
:100870000A128A1140250A128A1170088312031382
:10088000AA007108AB007208AC0008003830F20012
:100890000030F3000A128A1114240A128A110C3053
:1008A000F2000030F3000A128A1114240A128A118D
:1008B0000630F2000030F3000A128A1114240A12E2
:1008C0008A110130F2000030F3000A128A11142458
:1008D0000A128A110800710870040319702C712C17
:1008E000A12CF5010314F50D802C01300310F00D3F
:1008F000F10DFF3E031D762C0130F4007408F5075E
:10090000F11F832C842C752C71087302031D8A2C13
:1009100070087202031C8D2C8E2C942C7008F2022D
:100920007108031CF303F30201300310F10CF00C07
:10093000FF3E031D952C0130F502031DA02CA12CB8
:10094000842C7308F101F1077208F001F007080028
:100950000030F5000030F600710870040319B12C66
:10096000B22CEA2CF7010314F70DC12C013003104F
:10097000F00DF10DFF3E031DB72C0130F40074089B
:10098000F707F11FC42CC52CB62C01300310F50D50
:10099000F60DFF3E031DC62C71087302031DD22CF9
:1009A00070087202031CD52CD62CDD2C7008F202C4
:1009B0007108031CF303F302751401300310F10CEA
:1009C000F00CFF3E031DDE2C0130F702031DE92C65
:1009D000EA2CC52C7608F101F1077508F001F00743
:1009E0000800013083160313850087018312031367
:1009F0008701831603138601831203138601403097
:100A00009F008230831603139F000A128A11462426
:100A10000A128A11F430F0000130F1000A128A1132
:100A2000EE230A128A118030F2000030F3000A121D
:100A30008A1114240A128A114130F2000030F300A6
:100A40000A128A1100240A128A114430F20000307E
:100A5000F3000A128A1100240A128A114330F200AC
:100A60000030F3000A128A1100240A128A110A12B5
:100A70008A1113270A128A11132D0A128A110028CB
:100A80007308031D442D4B2D720871047004031D5F
:100A90004A2D4B2D522D0030F0000030F100003077
:100AA000F200B42D5F2D0130F5007508F307013019
:100AB0000310F20CF10CF00CFF3E031D582DFE301C
:100AC0007205031D642D652D532D7C2D0130F5001D
:100AD0007508F3070130F007003003180130F10703
:100AE000003003180130F20701300310F20CF10C52
:100AF000F00CFF3E031D752DFF307205031D812D87
:100B0000822D662D8D2D0130F30201300310F00D82
:100B1000F10DF20DFF3E031D862DF11F902D912D3D
:100B2000832D7318942D952D9B2DFF30F0057F306C
:100B3000F105FF30F2050310F30C7308F500F60120
:100B4000F70110300310F50DF60DF70DFF3E031DF4
:100B5000A22D7508F0047608F1047708F2047408F1
:100B6000031DB32DB42DF217080078088312031368
:100B7000A0007908A1007A08A2000310210D220D1F
:100B8000A3002308A900A908031DC72DC82DD12D36
:100B90000030FB000030FA000030F9000030F800AF
:100BA000502E7808A0007908A1007A08A20017301A
:100BB0000310A20CA10CA00CFF3E031DD82D200891
:100BC000A3002308A400F917FF30F805FF30F9054A
:100BD0000030FA057808A5007908A6007A08A70071
:100BE000A8018E30A902A91FF62DF72D192E29086C
:100BF000803A8F3E0318FD2DFE2D072E0030FB009E
:100C00000030FA000030F9000030F800502E0130BA
:100C10000310A80CA70CA60CA50CFF3E031D082E64
:100C20000130A0002008A907031D172E182E072E3B
:100C3000392E18302902031C1E2E1F2E282E00309C
:100C4000FB000030FA000030F9000030F800502EB0
:100C5000342E0130A0000310A50DA60DA70DA80D80
:100C6000A00B2B2E0130A902A908031D382E392E06
:100C7000292E2408031D3D2E482EA509A609A709E3
:100C8000A809A50A0319A60A0319A70A0319A80A9D
:100C90002808FB002708FA002608F9002508F800B4
:100CA0000800831203133008B3003108B40032087F
:100CB000B5000310340D350DB6003608BB00BB0877
:100CC000031D632E642E6B2E0030AD000030AE008D
:100CD0000030AF00122F2D08B3002E08B4002F08EB
:100CE000B5000310340D350DB6003608BC00BC0845
:100CF000031D7B2E7C2E832E0030AD000030AE0015
:100D00000030AF00122F0030B8000030B9000030C2
:100D1000BA0089303C07B3003308BB023008B30087
:100D20003108B4003208B50010300310B50CB40C13
:100D3000B30CFF3E031D952E3308B6003608BC00E9
:100D40002D08B3002E08B4002F08B5001030031092
:100D5000B50CB40CB30CFF3E031DA72E3308B60030
:100D60003608BC068030B3003308BC05B117FF302D
:100D7000B005FF30B1050030B205AE17FF30AD054C
:100D8000FF30AE050030AF051830B3003308B700B0
:100D900001300310B80DB90DBA0DFF3E031DC92E69
:100DA0002F083202031DDA2E2E083102031DDA2E1F
:100DB0002D083002031CDD2EDE2EE92E2D08B00298
:100DC0002E08031C2E0FB1022F08031C2F0AB2029B
:100DD000381401300310B00DB10DB20DFF3E031DEC
:100DE000EA2E0130B702031DF62EF72EC82E380862
:100DF000F0003908F1003A08F2003B08B30033086C
:100E0000F3003C08B4003408F4000A128A114025AB
:100E10000A128A11700883120313AD007108AE0024
:100E20007208AF000800831203139F121F129F1154
:100E30001F141F0804389F008830F0001330F100A1
:100E40000A128A11EE230A128A11831203131E0852
:100E5000BD00BE010830FE000310BD0DBE0DFE0B2F
:100E60002C2F3D08C7003E08C800831603131E0838
:100E7000831203134707AA0048080318480AAB0067
:100E80000A128A1128240A128A11831203132A08CB
:100E9000B0002B08B1002C08B200E130AD000230E8
:100EA000AE004030AF000A128A1151260A128A1190
:100EB000831203132D08F8002E08F9002F08FA00FA
:100EC0000A128A11B5250A128A11790883120313AE
:100ED000C801C8077808C701C7076430F0000030B0
:100EE000F1004808F301F3074708F201F2070A127C
:100EF0008A11A8240A128A11710883120313C001EF
:100F0000C0077008BF01BF076430F0000030F10077
:100F10004808F301F3074708F201F2070A128A11A1
:100F20006B240A128A11710883120313C201C207CB
:100F30007008C101C1070A30F0000030F10042081A
:100F4000F301F3074108F201F2070A128A11A824FB
:100F50000A128A11710883120313C401C4077008AE
:100F6000C301C3070A30F0000030F1004208F3016A
:100F7000F3074108F201F2070A128A116B240A12E0
:100F80008A11710883120313C601C6077008C501D0
:100F9000C507C030F2000030F3000A128A11142491
:100FA0000A128A11831203133F08303EF2004008F0
:100FB0000318013E003EF3000A128A1100240A12AF
:100FC0008A11831203134308303EF20044080318C9
:100FD000013E003EF3000A128A1100240A128A110F
:100FE000831203134508303EF20046080318013E01
:100FF000003EF3000A128A1100240A128A11080026
:00000001FF
