:060000000A128A112F2FE5
:100E5E0083010A128A11332F83160313860183121C
:100E6E0003138601061486100A128A1158270A12D5
:100E7E008A11831203138614061006110A128A11A0
:100E8E0090270A128A118312031306150610861074
:100E9E000A128A11C8270A128A11392F0A128A11C8
:100EAE0000280030F0000030F1007108803AFE009A
:100EBE0084307E02031D652FB1307002031C682F33
:100ECE00692F6A2F8F2F83160313011481140115B6
:100EDE008111011281121430831203138100772FB6
:100EEE000B1D7A2F7B2F772F0B110130F007031874
:100EFE00F10A0030F1077108803AFE0084307E025C
:100F0E00031D8B2FB1307002031C8E2F8F2F6A2F73
:100F1E0008000030F0000030F1007108803AFE0049
:100F2E0080307E02031D9D2FC9307002031CA02F3E
:100F3E00A12FA22FC72F831603130114811401159D
:100F4E008111011281121430831203138100AF2F0D
:100F5E000B1DB22FB32FAF2F0B110130F00703185B
:100F6E00F10A0030F1077108803AFE0080307E02EF
:100F7E00031DC32FC9307002031CC62FC72FA22F0B
:100F8E0008000030F0000030F1007108803AFE00D9
:100F9E0081307E02031DD52F91307002031CD82F95
:100FAE00D92FDA2FFF2F8316031301148114011585
:100FBE008111011281121430831203138100E72F65
:100FCE000B1DEA2FEB2FE72F0B110130F007031843
:100FDE00F10A0030F1077108803AFE0081307E027E
:100FEE00031DFB2F91307002031CFE2FFF2FDA2FF3
:020FFE000800E9
:00000001FF
