:060000000A128A11B12F63
:100F6200F001F10183010A128A11B72F83160313CC
:100F72008601831203138601183083160313870038
:100F8200831203138701013083160313880083122F
:100F92000313880180308316031394008312031312
:100FA200941694111415941014141308353A031D51
:100FB200DB2FDC2FDE2F8617DF2F8613081CE22F94
:100FC200E32FF02F3130F0000030F1007008930071
:100FD200EA2F8C1DED2FEE2FEA2F8C11FC2F3230D1
:100FE200F0000030F10070089300F72F8C1DFA2FEB
:0E0FF200FB2FF72F8C11D62F0A128A11002820
:00000001FF
