:060000000A128A11892F8B
:100F1200F001F10183010A128A11A12F902F0130F1
:100F2200F2020030031CF303F302FF307306031DC9
:100F32009C2FFF307206031D9F2FA02F902F0800B9
:100F4200013083160313860083120313860183166E
:100F520003138801831203138801103083160313CD
:100F620087008312031387018030831603139400D2
:100F7200831203139416941114119410141013086D
:100F8200313A031DC52FC62FD12F08148830F20025
:100F92001330F3000A128A118F270A128A11DD2FE9
:100FA200831203130810F430F2000130F3000A1226
:100FB2008A118F270A128A1183120313061CE22F49
:100FC200E32FF02F3530F0000030F100700893006D
:100FD200EA2F8C1DED2FEE2FEA2F8C11FC2F3430CF
:100FE200F0000030F10070089300F72F8C1DFA2FEB
:0E0FF200FB2FF72F8C11C02F0A128A11002836
:00000001FF
