:100000000A128A11442B00308A000408840A8207ED
:10001000003445346E3474346534723420346E34B4
:1000200075346D34623465347234003445346E3462
:10003000743465347234203463346F3469346E340C
:1000400000344434693461346C3469346E34673458
:0200500000347A
:100600003C34003464008001840A04060319003479
:100610000406032B0B2B0130F0020030031CF10306
:10062000F102FF307106031D172BFF307006031D0A
:100630001A2B1B2B0B2B0800720883120313880044
:100640000612861206176430F0000030F1000A121C
:100650008A110A230A128A1183120313061308004F
:100660007208831203138800061686120617E830F4
:10067000F0000330F1000A128A110A230A128A11CB
:100680008312031306130800F801F901FA01FB01B4
:100690008313203084003A300A128A1102230A128E
:1006A0008A110A128A1100230A128A11FC000A1206
:1006B0008A1101230A128A11FD0083010A128A118C
:1006C000392C3830F2000030F3000A128A111C2352
:1006D0000A128A110C30F2000030F3000A128A115B
:1006E0001C230A128A110130F2000030F3000A12B2
:1006F0008A111C230A128A110630F2000030F3001E
:100700000A128A111C230A128A110800F60000300E
:10071000F8000030F900A52B7808760784000A124B
:100720008A1103200A128A11F400F5017408F200FC
:100730007508F3000A128A1130230A128A11013057
:10074000F8070318F90A0030F907780876078400DB
:100750000A128A1103200A128A110038031DB12BD4
:10076000B22B8C2B0800710870040319B82BB92B1D
:10077000E92BF5010314F50DC82B01300310F00D22
:10078000F10DFF3E031DBE2B0130F4007408F50788
:10079000F11FCB2BCC2BBD2B71087302031DD22B69
:1007A00070087202031CD52BD62BDC2B7008F202CA
:1007B0007108031CF303F30201300310F10CF00C79
:1007C000FF3E031DDD2B0130F502031DE82BE92B55
:1007D000CC2B7308F101F1077208F001F007080053
:1007E0000030F5000030F600710870040319F92B91
:1007F000FA2B322CF7010314F70D092C01300310EA
:10080000F00DF10DFF3E031DFF2B0130F4007408C5
:10081000F707F11F0C2C0D2CFE2B01300310F50DEA
:10082000F60DFF3E031D0E2C71087302031D1A2CDA
:1008300070087202031C1D2C1E2C252C7008F2025D
:100840007108031CF303F302751401300310F10C5B
:10085000F00CFF3E031D262C0130F702031D312C46
:10086000322C0D2C7608F101F1077508F001F00724
:1008700008000F30831603138600831203138601CA
:1008800078308316031387008312031387018316BE
:10089000031388018312031388018316031389014C
:1008A0008312031389010A128A1161230A128A1121
:1008B00083120313061C5D2C5E2C762C8030F20014
:1008C0000030F3000A128A111C230A128A110E301A
:1008D0000A128A1186230A128A11E830F0000330C6
:1008E000F1000A128A110A230A128A1183120313D1
:1008F000861C7B2C7C2CBA2C8030F2000030F3005C
:100900000A128A111C230A128A1101300A128A1152
:1009100086230A128A11E830F0000330F1000A122F
:100920008A110A230A128A11C030F2000030F30043
:100930000A128A111C230A128A110A128A11B2257C
:100940000A128A11E830F0000330F1000A128A110D
:100950000A230A128A110130F2000030F3000A1251
:100960008A111C230A128A1119300A128A1186234D
:100970000A128A1183120313061DBF2CC02CAE2D40
:100980003C30FC000030FD00AD2D0130F2000030A5
:10099000F3000A128A111C230A128A116430F00033
:1009A0000030F1007D08F301F3077C08F201F20743
:1009B0000A128A11F0230A128A1171088312031392
:1009C000B701B7077008B601B6076430F000003011
:1009D000F1007D08F301F3077C08F201F2070A1227
:1009E0008A11B3230A128A117108FB01FB077008F0
:1009F000FA01FA070A30F0000030F1007B08F30139
:100A0000F3077A08F201F2070A128A11F0230A1298
:100A10008A11710883120313A901A9077008A8019C
:100A2000A8070A30F0000030F1007B08F301F3075B
:100A30007A08F201F2070A128A11B3230A128A1104
:100A4000710883120313AF01AF077008AE01AE0740
:100A50008D30F2000030F3000A128A111C230A12B2
:100A60008A11831203133608303EF2003708031848
:100A7000013E003EF3000A128A1130230A128A1145
:100A80009030F0000130F1000A128A110A230A1294
:100A90008A118E30F2000030F3000A128A111C23F2
:100AA0000A128A11831203132808303EF200290823
:100AB0000318013E003EF3000A128A1130230A1285
:100AC0008A11A030F0000F30F1000A128A110A23B7
:100AD0000A128A118F30F2000030F3000A128A11D4
:100AE0001C230A128A11831203132E08303EF200CF
:100AF0002F080318013E003EF3000A128A1130232A
:100B00000A128A11A030F0000F30F1000A128A1187
:100B10000A230A128A1183120313861D902D912D28
:100B2000A72D922D8619952D962D922D7C083C3E51
:100B3000FC007D080318013E003EFD00A030F000DF
:100B40000F30F1000A128A110A230A128A110130A9
:100B5000FC020030031CFD03FD02C52C582C0A12B8
:100B60008A110028F42F831203130714871007112A
:100B7000E830F0000330F1000A128A110A230A1249
:100B80008A1183120313071CC62DC72D572E871DEC
:100B9000CA2DCB2DE12D3130F2000030F3000A12C6
:100BA0008A1130230A128A11013083120313AC0711
:100BB0000318AD0A0030AD07DD2D8719E02DE12DBA
:100BC000DD2D6430F0000030F1000A128A110A2392
:100BD0000A128A1183120313071EEF2DF02D062E21
:100BE0003430F2000030F3000A128A1130230A1266
:100BF0008A11013083120313AC070318AD0A0030C9
:100C0000AD07022E071A052E062E022E871E092E6C
:100C10000A2E292E6430F0000030F1000A128A11E9
:100C20000A230A128A113730F2000030F3000A1248
:100C30008A1130230A128A11013083120313AC0780
:100C40000318AD0A0030AD07252E871A282E292E4D
:100C5000252EE830F0000330F1000A128A110A2331
:100C60000A128A1183120313071F372E382E572EAC
:100C70006430F0000030F1000A128A110A230A12CF
:100C80008A112A30F2000030F3000A128A11302350
:100C90000A128A11013083120313AC070318AD0A3C
:100CA0000030AD07532E071B562E572E532EE8301B
:100CB000F0000330F1000A128A110A230A128A1185
:100CC000831203130710871407116430F0000030FB
:100CD000F1000A128A110A230A128A1183120313DD
:100CE000871C732E742E2A2F871D772E782E972E11
:100CF0006430F0000030F1000A128A110A230A124F
:100D00008A113230F2000030F3000A128A113023C7
:100D10000A128A11013083120313AC070318AD0ABB
:100D20000030AD07932E8719962E972E932EE8301C
:100D3000F0000330F1000A128A110A230A128A1104
:100D400083120313071EA52EA62EC52E6430F000B5
:100D50000030F1000A128A110A230A128A11353072
:100D6000F2000030F3000A128A1130230A128A11AD
:100D7000013083120313AC070318AD0A0030AD072E
:100D8000C12E071AC42EC52EC12E6430F0000030CB
:100D9000F1000A128A110A230A128A11831203131C
:100DA000871ED32ED42EF32E6430F0000030F100D5
:100DB0000A128A110A230A128A113830F20000300E
:100DC000F3000A128A1130230A128A1101308312A9
:100DD0000313AC070318AD0A0030AD07EF2E871AD6
:100DE000F22EF32EEF2E6430F0000030F1000A12E4
:100DF0008A110A230A128A1183120313071F012F73
:100E0000022F212F6430F0000030F1000A128A1105
:100E10000A230A128A113030F2000030F3000A125D
:100E20008A1130230A128A11013083120313AC078E
:100E30000318AD0A0030AD071D2F071B202F212FEF
:100E40001D2F6430F0000030F1000A128A110A23CD
:100E50000A128A1183120313071087100715E8304E
:100E6000F0000330F1000A128A110A230A128A11D3
:100E700083120313071D3D2F3E2FF42F871D412F93
:100E8000422F612F6430F0000030F1000A128A1105
:100E90000A230A128A113330F2000030F3000A12DA
:100EA0008A1130230A128A11013083120313AC070E
:100EB0000318AD0A0030AD075D2F8719602F612F31
:100EC0005D2F6430F0000030F1000A128A110A230D
:100ED0000A128A1183120313071E6F2F702F8F2F90
:100EE0006430F0000030F1000A128A110A230A125D
:100EF0008A113630F2000030F3000A128A113023D2
:100F00000A128A11013083120313AC070318AD0AC9
:100F10000030AD078B2F071A8E2F8F2F8B2F643049
:100F2000F0000030F1000A128A110A230A128A1115
:100F300083120313871E9D2F9E2FBD2F6430F00058
:100F40000030F1000A128A110A230A128A1139307C
:100F5000F2000030F3000A128A1130230A128A11BB
:100F6000013083120313AC070318AD0A0030AD073C
:100F7000B92F871ABC2FBD2FB92F6430F000003075
:100F8000F1000A128A110A230A128A11831203132A
:100F9000071FCB2FCC2FEB2F6430F0000030F10077
:100FA0000A128A110A230A128A112330F200003031
:100FB000F3000A128A1130230A128A1101308312B7
:100FC0000313AC070318AD0A0030AD07E72F071B6A
:100FD000EA2FEB2FE72F1030F0002730F1000A1234
:100FE0008A110A230A128A110030831203132D0278
:100FF0000A3003192C02031CFE2FFF2FB32D08000B
:00000001FF
