:060000000A128A11AD2F67
:100F5A0083010A128A11B12F8316031386018312A1
:100F6A00031386010A128A11C8270A128A1101304C
:100F7A008312031386000A128A11C8270A128A11D9
:100F8A000A128A1100280030F0000030F1007108BE
:100F9A00803AFE0080307E02031DD52F1530700284
:100FAA00031CD82FD92FDA2FFF2F8316031301140E
:100FBA008114011581110112811214308312031355
:100FCA008100E72F0B1DEA2FEB2FE72F0B110130C2
:100FDA00F0070318F10A0030F1077108803AFE00A1
:100FEA0080307E02031DFB2F15307002031CFE2F7A
:060FFA00FF2FDA2F0800B2
:00000001FF
